{
  "_format": "hh-sol-artifact-1",
  "contractName": "AuctionHouse",
  "sourceName": "contracts/AuctionHouse.sol",
  "abi": [
    {
      "inputs": [
        {
          "internalType": "address",
          "name": "_zora",
          "type": "address"
        },
        {
          "internalType": "address",
          "name": "_weth",
          "type": "address"
        }
      ],
      "stateMutability": "nonpayable",
      "type": "constructor"
    },
    {
      "anonymous": false,
      "inputs": [
        {
          "indexed": true,
          "internalType": "uint256",
          "name": "auctionId",
          "type": "uint256"
        },
        {
          "indexed": true,
          "internalType": "uint256",
          "name": "tokenId",
          "type": "uint256"
        },
        {
          "indexed": true,
          "internalType": "address",
          "name": "tokenContract",
          "type": "address"
        },
        {
          "indexed": false,
          "internalType": "bool",
          "name": "approved",
          "type": "bool"
        }
      ],
      "name": "AuctionApprovalUpdated",
      "type": "event"
    },
    {
      "anonymous": false,
      "inputs": [
        {
          "indexed": true,
          "internalType": "uint256",
          "name": "auctionId",
          "type": "uint256"
        },
        {
          "indexed": true,
          "internalType": "uint256",
          "name": "tokenId",
          "type": "uint256"
        },
        {
          "indexed": true,
          "internalType": "address",
          "name": "tokenContract",
          "type": "address"
        },
        {
          "indexed": false,
          "internalType": "address",
          "name": "sender",
          "type": "address"
        },
        {
          "indexed": false,
          "internalType": "uint256",
          "name": "value",
          "type": "uint256"
        },
        {
          "indexed": false,
          "internalType": "bool",
          "name": "firstBid",
          "type": "bool"
        },
        {
          "indexed": false,
          "internalType": "bool",
          "name": "extended",
          "type": "bool"
        }
      ],
      "name": "AuctionBid",
      "type": "event"
    },
    {
      "anonymous": false,
      "inputs": [
        {
          "indexed": true,
          "internalType": "uint256",
          "name": "auctionId",
          "type": "uint256"
        },
        {
          "indexed": true,
          "internalType": "uint256",
          "name": "tokenId",
          "type": "uint256"
        },
        {
          "indexed": true,
          "internalType": "address",
          "name": "tokenContract",
          "type": "address"
        },
        {
          "indexed": false,
          "internalType": "address",
          "name": "tokenOwner",
          "type": "address"
        }
      ],
      "name": "AuctionCanceled",
      "type": "event"
    },
    {
      "anonymous": false,
      "inputs": [
        {
          "indexed": true,
          "internalType": "uint256",
          "name": "auctionId",
          "type": "uint256"
        },
        {
          "indexed": true,
          "internalType": "uint256",
          "name": "tokenId",
          "type": "uint256"
        },
        {
          "indexed": true,
          "internalType": "address",
          "name": "tokenContract",
          "type": "address"
        },
        {
          "indexed": false,
          "internalType": "uint256",
          "name": "duration",
          "type": "uint256"
        },
        {
          "indexed": false,
          "internalType": "uint256",
          "name": "reservePrice",
          "type": "uint256"
        },
        {
          "indexed": false,
          "internalType": "address",
          "name": "tokenOwner",
          "type": "address"
        },
        {
          "indexed": false,
          "internalType": "address",
          "name": "curator",
          "type": "address"
        },
        {
          "indexed": false,
          "internalType": "uint8",
          "name": "curatorFeePercentage",
          "type": "uint8"
        },
        {
          "indexed": false,
          "internalType": "address",
          "name": "auctionCurrency",
          "type": "address"
        }
      ],
      "name": "AuctionCreated",
      "type": "event"
    },
    {
      "anonymous": false,
      "inputs": [
        {
          "indexed": true,
          "internalType": "uint256",
          "name": "auctionId",
          "type": "uint256"
        },
        {
          "indexed": true,
          "internalType": "uint256",
          "name": "tokenId",
          "type": "uint256"
        },
        {
          "indexed": true,
          "internalType": "address",
          "name": "tokenContract",
          "type": "address"
        },
        {
          "indexed": false,
          "internalType": "address",
          "name": "tokenOwner",
          "type": "address"
        },
        {
          "indexed": false,
          "internalType": "address",
          "name": "curator",
          "type": "address"
        },
        {
          "indexed": false,
          "internalType": "address",
          "name": "winner",
          "type": "address"
        },
        {
          "indexed": false,
          "internalType": "uint256",
          "name": "amount",
          "type": "uint256"
        },
        {
          "indexed": false,
          "internalType": "uint256",
          "name": "curatorFee",
          "type": "uint256"
        },
        {
          "indexed": false,
          "internalType": "address",
          "name": "auctionCurrency",
          "type": "address"
        }
      ],
      "name": "AuctionEnded",
      "type": "event"
    },
    {
      "anonymous": false,
      "inputs": [
        {
          "indexed": true,
          "internalType": "uint256",
          "name": "auctionId",
          "type": "uint256"
        },
        {
          "indexed": true,
          "internalType": "uint256",
          "name": "tokenId",
          "type": "uint256"
        },
        {
          "indexed": true,
          "internalType": "address",
          "name": "tokenContract",
          "type": "address"
        },
        {
          "indexed": false,
          "internalType": "uint256",
          "name": "reservePrice",
          "type": "uint256"
        }
      ],
      "name": "AuctionReservePriceUpdated",
      "type": "event"
    },
    {
      "stateMutability": "payable",
      "type": "fallback"
    },
    {
      "inputs": [
        {
          "internalType": "uint256",
          "name": "",
          "type": "uint256"
        }
      ],
      "name": "auctions",
      "outputs": [
        {
          "internalType": "uint256",
          "name": "tokenId",
          "type": "uint256"
        },
        {
          "internalType": "address",
          "name": "tokenContract",
          "type": "address"
        },
        {
          "internalType": "bool",
          "name": "approved",
          "type": "bool"
        },
        {
          "internalType": "uint256",
          "name": "amount",
          "type": "uint256"
        },
        {
          "internalType": "uint256",
          "name": "duration",
          "type": "uint256"
        },
        {
          "internalType": "uint256",
          "name": "firstBidTime",
          "type": "uint256"
        },
        {
          "internalType": "uint256",
          "name": "reservePrice",
          "type": "uint256"
        },
        {
          "internalType": "uint8",
          "name": "curatorFeePercentage",
          "type": "uint8"
        },
        {
          "internalType": "address",
          "name": "tokenOwner",
          "type": "address"
        },
        {
          "internalType": "address payable",
          "name": "bidder",
          "type": "address"
        },
        {
          "internalType": "address payable",
          "name": "curator",
          "type": "address"
        },
        {
          "internalType": "address",
          "name": "auctionCurrency",
          "type": "address"
        }
      ],
      "stateMutability": "view",
      "type": "function"
    },
    {
      "inputs": [
        {
          "internalType": "uint256",
          "name": "auctionId",
          "type": "uint256"
        }
      ],
      "name": "cancelAuction",
      "outputs": [],
      "stateMutability": "nonpayable",
      "type": "function"
    },
    {
      "inputs": [
        {
          "internalType": "uint256",
          "name": "tokenId",
          "type": "uint256"
        },
        {
          "internalType": "address",
          "name": "tokenContract",
          "type": "address"
        },
        {
          "internalType": "uint256",
          "name": "duration",
          "type": "uint256"
        },
        {
          "internalType": "uint256",
          "name": "reservePrice",
          "type": "uint256"
        },
        {
          "internalType": "address payable",
          "name": "curator",
          "type": "address"
        },
        {
          "internalType": "uint8",
          "name": "curatorFeePercentage",
          "type": "uint8"
        },
        {
          "internalType": "address",
          "name": "auctionCurrency",
          "type": "address"
        }
      ],
      "name": "createAuction",
      "outputs": [
        {
          "internalType": "uint256",
          "name": "",
          "type": "uint256"
        }
      ],
      "stateMutability": "nonpayable",
      "type": "function"
    },
    {
      "inputs": [
        {
          "internalType": "uint256",
          "name": "auctionId",
          "type": "uint256"
        },
        {
          "internalType": "uint256",
          "name": "amount",
          "type": "uint256"
        }
      ],
      "name": "createBid",
      "outputs": [],
      "stateMutability": "payable",
      "type": "function"
    },
    {
      "inputs": [
        {
          "internalType": "uint256",
          "name": "auctionId",
          "type": "uint256"
        }
      ],
      "name": "endAuction",
      "outputs": [],
      "stateMutability": "nonpayable",
      "type": "function"
    },
    {
      "inputs": [],
      "name": "minBidIncrementPercentage",
      "outputs": [
        {
          "internalType": "uint8",
          "name": "",
          "type": "uint8"
        }
      ],
      "stateMutability": "view",
      "type": "function"
    },
    {
      "inputs": [
        {
          "internalType": "uint256",
          "name": "auctionId",
          "type": "uint256"
        },
        {
          "internalType": "bool",
          "name": "approved",
          "type": "bool"
        }
      ],
      "name": "setAuctionApproval",
      "outputs": [],
      "stateMutability": "nonpayable",
      "type": "function"
    },
    {
      "inputs": [
        {
          "internalType": "uint256",
          "name": "auctionId",
          "type": "uint256"
        },
        {
          "internalType": "uint256",
          "name": "reservePrice",
          "type": "uint256"
        }
      ],
      "name": "setAuctionReservePrice",
      "outputs": [],
      "stateMutability": "nonpayable",
      "type": "function"
    },
    {
      "inputs": [],
      "name": "timeBuffer",
      "outputs": [
        {
          "internalType": "uint256",
          "name": "",
          "type": "uint256"
        }
      ],
      "stateMutability": "view",
      "type": "function"
    },
    {
      "inputs": [],
      "name": "wethAddress",
      "outputs": [
        {
          "internalType": "address",
          "name": "",
          "type": "address"
        }
      ],
      "stateMutability": "view",
      "type": "function"
    },
    {
      "inputs": [],
      "name": "zora",
      "outputs": [
        {
          "internalType": "address",
          "name": "",
          "type": "address"
        }
      ],
      "stateMutability": "view",
      "type": "function"
    },
    {
      "stateMutability": "payable",
      "type": "receive"
    }
  ],
  "bytecode": "0x60806040523480156200001157600080fd5b50604051620050d5380380620050d58339818101604052810190620000379190620001f4565b60016000819055508173ffffffffffffffffffffffffffffffffffffffff166301ffc9a76380ac58cd60e01b6040518263ffffffff1660e01b8152600401620000819190620002b4565b60206040518083038186803b1580156200009a57600080fd5b505afa158015620000af573d6000803e3d6000fd5b505050506040513d601f19601f82011682018060405250810190620000d5919062000235565b62000117576040517f08c379a00000000000000000000000000000000000000000000000000000000081526004016200010e90620002d1565b60405180910390fd5b81600260016101000a81548173ffffffffffffffffffffffffffffffffffffffff021916908373ffffffffffffffffffffffffffffffffffffffff16021790555080600360006101000a81548173ffffffffffffffffffffffffffffffffffffffff021916908373ffffffffffffffffffffffffffffffffffffffff1602179055506103846001819055506005600260006101000a81548160ff021916908360ff1602179055505050620003a4565b600081519050620001d78162000370565b92915050565b600081519050620001ee816200038a565b92915050565b600080604083850312156200020857600080fd5b60006200021885828601620001c6565b92505060206200022b85828601620001c6565b9150509250929050565b6000602082840312156200024857600080fd5b60006200025884828501620001dd565b91505092915050565b6200026c8162000324565b82525050565b600062000281601d83620002f3565b91507f446f65736e277420737570706f7274204e465420696e746572666163650000006000830152602082019050919050565b6000602082019050620002cb600083018462000261565b92915050565b60006020820190508181036000830152620002ec8162000272565b9050919050565b600082825260208201905092915050565b6000620003118262000350565b9050919050565b60008115159050919050565b60007fffffffff0000000000000000000000000000000000000000000000000000000082169050919050565b600073ffffffffffffffffffffffffffffffffffffffff82169050919050565b6200037b8162000304565b81146200038757600080fd5b50565b620003958162000318565b8114620003a157600080fd5b50565b614d2180620003b46000396000f3fe6080604052600436106100a05760003560e01c806396b5a7551161006457806396b5a755146101ad578063973ddb4a146101d6578063b296024d146101ff578063b7751c711461022a578063b9a2de3a14610246578063ec91f2a41461026f576100a7565b8063166f46a7146100a95780634f0e0ef3146100d4578063571a26a0146100ff5780636f8a41e11461014757806375e9249f14610170576100a7565b366100a757005b005b3480156100b557600080fd5b506100be61029a565b6040516100cb919061441d565b60405180910390f35b3480156100e057600080fd5b506100e96102c0565b6040516100f6919061441d565b60405180910390f35b34801561010b57600080fd5b50610126600480360381019061012191906138bb565b6102e6565b60405161013e9c9b9a999897969594939291906149b1565b60405180910390f35b34801561015357600080fd5b5061016e600480360381019061016991906139e7565b610400565b005b34801561017c57600080fd5b506101976004803603810190610192919061390d565b61066e565b6040516101a49190614996565b60405180910390f35b3480156101b957600080fd5b506101d460048036038101906101cf91906138bb565b610deb565b005b3480156101e257600080fd5b506101fd60048036038101906101f891906139ab565b611000565b005b34801561020b57600080fd5b50610214611155565b6040516102219190614b1e565b60405180910390f35b610244600480360381019061023f91906139e7565b611168565b005b34801561025257600080fd5b5061026d600480360381019061026891906138bb565b611962565b005b34801561027b57600080fd5b506102846122dd565b6040516102919190614996565b60405180910390f35b600260019054906101000a900473ffffffffffffffffffffffffffffffffffffffff1681565b600360009054906101000a900473ffffffffffffffffffffffffffffffffffffffff1681565b60046020528060005260406000206000915090508060000154908060010160009054906101000a900473ffffffffffffffffffffffffffffffffffffffff16908060010160149054906101000a900460ff16908060020154908060030154908060040154908060050154908060060160009054906101000a900460ff16908060060160019054906101000a900473ffffffffffffffffffffffffffffffffffffffff16908060070160009054906101000a900473ffffffffffffffffffffffffffffffffffffffff16908060080160009054906101000a900473ffffffffffffffffffffffffffffffffffffffff16908060090160009054906101000a900473ffffffffffffffffffffffffffffffffffffffff1690508c565b8161040a816122e3565b610449576040517f08c379a000000000000000000000000000000000000000000000000000000000815260040161044090614816565b60405180910390fd5b6004600084815260200190815260200160002060080160009054906101000a900473ffffffffffffffffffffffffffffffffffffffff1673ffffffffffffffffffffffffffffffffffffffff163373ffffffffffffffffffffffffffffffffffffffff16148061051a57506004600084815260200190815260200160002060060160019054906101000a900473ffffffffffffffffffffffffffffffffffffffff1673ffffffffffffffffffffffffffffffffffffffff163373ffffffffffffffffffffffffffffffffffffffff16145b610559576040517f08c379a000000000000000000000000000000000000000000000000000000000815260040161055090614856565b60405180910390fd5b60006004600085815260200190815260200160002060040154146105b2576040517f08c379a00000000000000000000000000000000000000000000000000000000081526004016105a9906147b6565b60405180910390fd5b8160046000858152602001908152602001600020600501819055506004600084815260200190815260200160002060010160009054906101000a900473ffffffffffffffffffffffffffffffffffffffff1673ffffffffffffffffffffffffffffffffffffffff166004600085815260200190815260200160002060000154847f01e6a465ec1edd582d333147c7b7edf5998164f2cf2269dcb9c93d46c67bd317856040516106619190614996565b60405180910390a4505050565b6000600260005414156106b6576040517f08c379a00000000000000000000000000000000000000000000000000000000081526004016106ad90614916565b60405180910390fd5b60026000819055508673ffffffffffffffffffffffffffffffffffffffff166301ffc9a76380ac58cd60e01b6040518263ffffffff1660e01b81526004016106fe9190614619565b60206040518083038186803b15801561071657600080fd5b505afa15801561072a573d6000803e3d6000fd5b505050506040513d601f19601f8201168201806040525081019061074e9190613892565b61078d576040517f08c379a000000000000000000000000000000000000000000000000000000000815260040161078490614956565b60405180910390fd5b60648360ff16106107d3576040517f08c379a00000000000000000000000000000000000000000000000000000000081526004016107ca906148d6565b60405180910390fd5b60008773ffffffffffffffffffffffffffffffffffffffff16636352211e8a6040518263ffffffff1660e01b815260040161080e9190614996565b60206040518083038186803b15801561082657600080fd5b505afa15801561083a573d6000803e3d6000fd5b505050506040513d601f19601f8201168201806040525081019061085e9190613869565b90508773ffffffffffffffffffffffffffffffffffffffff1663081812fc8a6040518263ffffffff1660e01b81526004016108999190614996565b60206040518083038186803b1580156108b157600080fd5b505afa1580156108c5573d6000803e3d6000fd5b505050506040513d601f19601f820116820180604052508101906108e99190613869565b73ffffffffffffffffffffffffffffffffffffffff163373ffffffffffffffffffffffffffffffffffffffff16148061094d57508073ffffffffffffffffffffffffffffffffffffffff163373ffffffffffffffffffffffffffffffffffffffff16145b61098c576040517f08c379a0000000000000000000000000000000000000000000000000000000008152600401610983906148f6565b60405180910390fd5b60006109986005612352565b90506040518061018001604052808b81526020018a73ffffffffffffffffffffffffffffffffffffffff16815260200160001515815260200160008152602001898152602001600081526020018881526020018660ff1681526020018373ffffffffffffffffffffffffffffffffffffffff168152602001600073ffffffffffffffffffffffffffffffffffffffff1681526020018773ffffffffffffffffffffffffffffffffffffffff1681526020018573ffffffffffffffffffffffffffffffffffffffff16815250600460008381526020019081526020016000206000820151816000015560208201518160010160006101000a81548173ffffffffffffffffffffffffffffffffffffffff021916908373ffffffffffffffffffffffffffffffffffffffff16021790555060408201518160010160146101000a81548160ff021916908315150217905550606082015181600201556080820151816003015560a0820151816004015560c0820151816005015560e08201518160060160006101000a81548160ff021916908360ff1602179055506101008201518160060160016101000a81548173ffffffffffffffffffffffffffffffffffffffff021916908373ffffffffffffffffffffffffffffffffffffffff1602179055506101208201518160070160006101000a81548173ffffffffffffffffffffffffffffffffffffffff021916908373ffffffffffffffffffffffffffffffffffffffff1602179055506101408201518160080160006101000a81548173ffffffffffffffffffffffffffffffffffffffff021916908373ffffffffffffffffffffffffffffffffffffffff1602179055506101608201518160090160006101000a81548173ffffffffffffffffffffffffffffffffffffffff021916908373ffffffffffffffffffffffffffffffffffffffff1602179055509050508873ffffffffffffffffffffffffffffffffffffffff166323b872dd83308d6040518463ffffffff1660e01b8152600401610c9093929190614567565b600060405180830381600087803b158015610caa57600080fd5b505af1158015610cbe573d6000803e3d6000fd5b50505050610ccc6005612360565b8873ffffffffffffffffffffffffffffffffffffffff168a827f38c0b9047bd28fac9f420b967f6caf4a6260ba09d18940a9a502578a480c09008b8b878c8c8c604051610d1e96959493929190614abd565b60405180910390a4600073ffffffffffffffffffffffffffffffffffffffff166004600083815260200190815260200160002060080160009054906101000a900473ffffffffffffffffffffffffffffffffffffffff1673ffffffffffffffffffffffffffffffffffffffff161480610dc257508173ffffffffffffffffffffffffffffffffffffffff168673ffffffffffffffffffffffffffffffffffffffff16145b15610dd357610dd2816001612376565b5b80925050506001600081905550979650505050505050565b60026000541415610e31576040517f08c379a0000000000000000000000000000000000000000000000000000000008152600401610e2890614916565b60405180910390fd5b600260008190555080610e43816122e3565b610e82576040517f08c379a0000000000000000000000000000000000000000000000000000000008152600401610e7990614816565b60405180910390fd5b3373ffffffffffffffffffffffffffffffffffffffff166004600084815260200190815260200160002060060160019054906101000a900473ffffffffffffffffffffffffffffffffffffffff1673ffffffffffffffffffffffffffffffffffffffff161480610f5357503373ffffffffffffffffffffffffffffffffffffffff166004600084815260200190815260200160002060080160009054906101000a900473ffffffffffffffffffffffffffffffffffffffff1673ffffffffffffffffffffffffffffffffffffffff16145b610f92576040517f08c379a0000000000000000000000000000000000000000000000000000000008152600401610f8990614756565b60405180910390fd5b6000600460008481526020019081526020016000206004015414610feb576040517f08c379a0000000000000000000000000000000000000000000000000000000008152600401610fe290614676565b60405180910390fd5b610ff482612444565b50600160008190555050565b8161100a816122e3565b611049576040517f08c379a000000000000000000000000000000000000000000000000000000000815260040161104090614816565b60405180910390fd5b6004600084815260200190815260200160002060080160009054906101000a900473ffffffffffffffffffffffffffffffffffffffff1673ffffffffffffffffffffffffffffffffffffffff163373ffffffffffffffffffffffffffffffffffffffff16146110ed576040517f08c379a00000000000000000000000000000000000000000000000000000000081526004016110e490614696565b60405180910390fd5b6000600460008581526020019081526020016000206004015414611146576040517f08c379a000000000000000000000000000000000000000000000000000000000815260040161113d906147b6565b60405180910390fd5b6111508383612376565b505050565b600260009054906101000a900460ff1681565b81611172816122e3565b6111b1576040517f08c379a00000000000000000000000000000000000000000000000000000000081526004016111a890614816565b60405180910390fd5b600260005414156111f7576040517f08c379a00000000000000000000000000000000000000000000000000000000081526004016111ee90614916565b60405180910390fd5b600260008190555060006004600085815260200190815260200160002060070160009054906101000a900473ffffffffffffffffffffffffffffffffffffffff1690506004600085815260200190815260200160002060010160149054906101000a900460ff1661129d576040517f08c379a000000000000000000000000000000000000000000000000000000000815260040161129490614796565b60405180910390fd5b6000600460008681526020019081526020016000206004015414806112ff57506112fc6004600086815260200190815260200160002060030154600460008781526020019081526020016000206004015461270390919063ffffffff16565b42105b61133e576040517f08c379a000000000000000000000000000000000000000000000000000000000815260040161133590614936565b60405180910390fd5b6004600085815260200190815260200160002060050154831015611397576040517f08c379a000000000000000000000000000000000000000000000000000000000815260040161138e90614776565b60405180910390fd5b61140d6113e860646113da600260009054906101000a900460ff1660ff16600460008a81526020019081526020016000206002015461275890919063ffffffff16565b6127c890919063ffffffff16565b600460008781526020019081526020016000206002015461270390919063ffffffff16565b83101561144f576040517f08c379a0000000000000000000000000000000000000000000000000000000008152600401611446906147d6565b60405180910390fd5b600260019054906101000a900473ffffffffffffffffffffffffffffffffffffffff1673ffffffffffffffffffffffffffffffffffffffff166004600086815260200190815260200160002060010160009054906101000a900473ffffffffffffffffffffffffffffffffffffffff1673ffffffffffffffffffffffffffffffffffffffff16141561165d57600260019054906101000a900473ffffffffffffffffffffffffffffffffffffffff1673ffffffffffffffffffffffffffffffffffffffff1663a1794bcd6040518163ffffffff1660e01b8152600401602060405180830381600087803b15801561154557600080fd5b505af1158015611559573d6000803e3d6000fd5b505050506040513d601f19601f8201168201806040525081019061157d9190613869565b73ffffffffffffffffffffffffffffffffffffffff166302e8fe136004600087815260200190815260200160002060000154856040518363ffffffff1660e01b81526004016115cd929190614a94565b60206040518083038186803b1580156115e557600080fd5b505afa1580156115f9573d6000803e3d6000fd5b505050506040513d601f19601f8201168201806040525081019061161d9190613892565b61165c576040517f08c379a000000000000000000000000000000000000000000000000000000000815260040161165390614656565b60405180910390fd5b5b60006004600086815260200190815260200160002060040154141561169c57426004600086815260200190815260200160002060040181905550611729565b600073ffffffffffffffffffffffffffffffffffffffff168173ffffffffffffffffffffffffffffffffffffffff1614611728576117278160046000878152602001908152602001600020600201546004600088815260200190815260200160002060090160009054906101000a900473ffffffffffffffffffffffffffffffffffffffff1661281e565b5b5b611769836004600087815260200190815260200160002060090160009054906101000a900473ffffffffffffffffffffffffffffffffffffffff166129f5565b826004600086815260200190815260200160002060020181905550336004600086815260200190815260200160002060070160006101000a81548173ffffffffffffffffffffffffffffffffffffffff021916908373ffffffffffffffffffffffffffffffffffffffff160217905550600080905060015461183242611824600460008a815260200190815260200160002060030154600460008b81526020019081526020016000206004015461270390919063ffffffff16565b612c9c90919063ffffffff16565b101561188257611863600154600460008881526020019081526020016000206003015461270390919063ffffffff16565b6004600087815260200190815260200160002060030181905550600190505b6004600086815260200190815260200160002060010160009054906101000a900473ffffffffffffffffffffffffffffffffffffffff1673ffffffffffffffffffffffffffffffffffffffff166004600087815260200190815260200160002060000154867fda6b779568630ce5e5658b317174df474d5b335541ed9471bd8424a017f3be6d3388600073ffffffffffffffffffffffffffffffffffffffff168873ffffffffffffffffffffffffffffffffffffffff16148760405161194b94939291906144c1565b60405180910390a450506001600081905550505050565b8061196c816122e3565b6119ab576040517f08c379a00000000000000000000000000000000000000000000000000000000081526004016119a290614816565b60405180910390fd5b600260005414156119f1576040517f08c379a00000000000000000000000000000000000000000000000000000000081526004016119e890614916565b60405180910390fd5b6002600081905550600060046000848152602001908152602001600020600401541415611a53576040517f08c379a0000000000000000000000000000000000000000000000000000000008152600401611a4a90614716565b60405180910390fd5b611a926004600084815260200190815260200160002060030154600460008581526020019081526020016000206004015461270390919063ffffffff16565b421015611ad4576040517f08c379a0000000000000000000000000000000000000000000000000000000008152600401611acb906148b6565b60405180910390fd5b60008073ffffffffffffffffffffffffffffffffffffffff166004600085815260200190815260200160002060090160009054906101000a900473ffffffffffffffffffffffffffffffffffffffff1673ffffffffffffffffffffffffffffffffffffffff1614611b7b576004600084815260200190815260200160002060090160009054906101000a900473ffffffffffffffffffffffffffffffffffffffff16611b9f565b600360009054906101000a900473ffffffffffffffffffffffffffffffffffffffff165b90506000809050600060046000868152602001908152602001600020600201549050600260019054906101000a900473ffffffffffffffffffffffffffffffffffffffff1673ffffffffffffffffffffffffffffffffffffffff166004600087815260200190815260200160002060010160009054906101000a900473ffffffffffffffffffffffffffffffffffffffff1673ffffffffffffffffffffffffffffffffffffffff161415611d1357600080611c5987612cec565b915091508092506001151582151514611d0c57611cf96004600089815260200190815260200160002060070160009054906101000a900473ffffffffffffffffffffffffffffffffffffffff16600460008a815260200190815260200160002060020154600460008b815260200190815260200160002060090160009054906101000a900473ffffffffffffffffffffffffffffffffffffffff1661281e565b611d0287612444565b50505050506122d1565b5050611ea0565b6004600086815260200190815260200160002060010160009054906101000a900473ffffffffffffffffffffffffffffffffffffffff1673ffffffffffffffffffffffffffffffffffffffff166342842e0e306004600089815260200190815260200160002060070160009054906101000a900473ffffffffffffffffffffffffffffffffffffffff16600460008a8152602001908152602001600020600001546040518463ffffffff1660e01b8152600401611dd293929190614453565b600060405180830381600087803b158015611dec57600080fd5b505af1925050508015611dfd575060015b611e9f57611e8e6004600087815260200190815260200160002060070160009054906101000a900473ffffffffffffffffffffffffffffffffffffffff1660046000888152602001908152602001600020600201546004600089815260200190815260200160002060090160009054906101000a900473ffffffffffffffffffffffffffffffffffffffff1661281e565b611e9785612444565b5050506122d1565b5b600073ffffffffffffffffffffffffffffffffffffffff166004600087815260200190815260200160002060080160009054906101000a900473ffffffffffffffffffffffffffffffffffffffff1673ffffffffffffffffffffffffffffffffffffffff1614611fe557611f566064611f486004600089815260200190815260200160002060060160009054906101000a900460ff1660ff168461275890919063ffffffff16565b6127c890919063ffffffff16565b9150611f6b8282612c9c90919063ffffffff16565b9050611fe46004600087815260200190815260200160002060080160009054906101000a900473ffffffffffffffffffffffffffffffffffffffff16836004600089815260200190815260200160002060090160009054906101000a900473ffffffffffffffffffffffffffffffffffffffff1661281e565b5b61205c6004600087815260200190815260200160002060060160019054906101000a900473ffffffffffffffffffffffffffffffffffffffff16826004600089815260200190815260200160002060090160009054906101000a900473ffffffffffffffffffffffffffffffffffffffff1661281e565b6004600086815260200190815260200160002060010160009054906101000a900473ffffffffffffffffffffffffffffffffffffffff1673ffffffffffffffffffffffffffffffffffffffff166004600087815260200190815260200160002060000154867f4f35fb3ea0081b3ccbe8df613cab0f9e1694d50a025e0aa09b88a86a3d07c2de600460008a815260200190815260200160002060060160019054906101000a900473ffffffffffffffffffffffffffffffffffffffff16600460008b815260200190815260200160002060080160009054906101000a900473ffffffffffffffffffffffffffffffffffffffff16600460008c815260200190815260200160002060070160009054906101000a900473ffffffffffffffffffffffffffffffffffffffff1687898b60405161219c96959493929190614506565b60405180910390a4600460008681526020019081526020016000206000808201600090556001820160006101000a81549073ffffffffffffffffffffffffffffffffffffffff02191690556001820160146101000a81549060ff021916905560028201600090556003820160009055600482016000905560058201600090556006820160006101000a81549060ff02191690556006820160016101000a81549073ffffffffffffffffffffffffffffffffffffffff02191690556007820160006101000a81549073ffffffffffffffffffffffffffffffffffffffff02191690556008820160006101000a81549073ffffffffffffffffffffffffffffffffffffffff02191690556009820160006101000a81549073ffffffffffffffffffffffffffffffffffffffff021916905550505050505b60016000819055505050565b60015481565b60008073ffffffffffffffffffffffffffffffffffffffff166004600084815260200190815260200160002060060160019054906101000a900473ffffffffffffffffffffffffffffffffffffffff1673ffffffffffffffffffffffffffffffffffffffff1614159050919050565b600081600001549050919050565b6001816000016000828254019250508190555050565b806004600084815260200190815260200160002060010160146101000a81548160ff0219169083151502179055506004600083815260200190815260200160002060010160009054906101000a900473ffffffffffffffffffffffffffffffffffffffff1673ffffffffffffffffffffffffffffffffffffffff166004600084815260200190815260200160002060000154837fec35d321ab4972475f131e184c0c0fe52c5a58a29d74f7db2969af2f6dd93a1f8460405161243891906145fe565b60405180910390a45050565b60006004600083815260200190815260200160002060060160019054906101000a900473ffffffffffffffffffffffffffffffffffffffff1690506004600083815260200190815260200160002060010160009054906101000a900473ffffffffffffffffffffffffffffffffffffffff1673ffffffffffffffffffffffffffffffffffffffff166342842e0e308360046000878152602001908152602001600020600001546040518463ffffffff1660e01b81526004016125089392919061448a565b600060405180830381600087803b15801561252257600080fd5b505af1158015612536573d6000803e3d6000fd5b505050506004600083815260200190815260200160002060010160009054906101000a900473ffffffffffffffffffffffffffffffffffffffff1673ffffffffffffffffffffffffffffffffffffffff166004600084815260200190815260200160002060000154837f6091afcbe8514686c43b167ca4f1b03e24446d29d8490d496e438f8a2c763439846040516125ce919061441d565b60405180910390a4600460008381526020019081526020016000206000808201600090556001820160006101000a81549073ffffffffffffffffffffffffffffffffffffffff02191690556001820160146101000a81549060ff021916905560028201600090556003820160009055600482016000905560058201600090556006820160006101000a81549060ff02191690556006820160016101000a81549073ffffffffffffffffffffffffffffffffffffffff02191690556007820160006101000a81549073ffffffffffffffffffffffffffffffffffffffff02191690556008820160006101000a81549073ffffffffffffffffffffffffffffffffffffffff02191690556009820160006101000a81549073ffffffffffffffffffffffffffffffffffffffff021916905550505050565b60008082840190508381101561274e576040517f08c379a0000000000000000000000000000000000000000000000000000000008152600401612745906146b6565b60405180910390fd5b8091505092915050565b60008083141561276b57600090506127c2565b600082840290508284828161277c57fe5b04146127bd576040517f08c379a00000000000000000000000000000000000000000000000000000000081526004016127b4906147f6565b60405180910390fd5b809150505b92915050565b600080821161280c576040517f08c379a000000000000000000000000000000000000000000000000000000000815260040161280390614736565b60405180910390fd5b81838161281557fe5b04905092915050565b600073ffffffffffffffffffffffffffffffffffffffff168173ffffffffffffffffffffffffffffffffffffffff1614156129c457600360009054906101000a900473ffffffffffffffffffffffffffffffffffffffff1673ffffffffffffffffffffffffffffffffffffffff16632e1a7d4d836040518263ffffffff1660e01b81526004016128ae9190614996565b600060405180830381600087803b1580156128c857600080fd5b505af11580156128dc573d6000803e3d6000fd5b505050506128ea83836132f6565b6129bf57600360009054906101000a900473ffffffffffffffffffffffffffffffffffffffff1673ffffffffffffffffffffffffffffffffffffffff1663d0e30db0836040518263ffffffff1660e01b81526004016000604051808303818588803b15801561295857600080fd5b505af115801561296c573d6000803e3d6000fd5b50505050506129be8383600360009054906101000a900473ffffffffffffffffffffffffffffffffffffffff1673ffffffffffffffffffffffffffffffffffffffff166133ba9092919063ffffffff16565b5b6129f0565b6129ef83838373ffffffffffffffffffffffffffffffffffffffff166133ba9092919063ffffffff16565b5b505050565b600073ffffffffffffffffffffffffffffffffffffffff168173ffffffffffffffffffffffffffffffffffffffff161415612af457813414612a6c576040517f08c379a0000000000000000000000000000000000000000000000000000000008152600401612a6390614836565b60405180910390fd5b600360009054906101000a900473ffffffffffffffffffffffffffffffffffffffff1673ffffffffffffffffffffffffffffffffffffffff1663d0e30db0836040518263ffffffff1660e01b81526004016000604051808303818588803b158015612ad657600080fd5b505af1158015612aea573d6000803e3d6000fd5b5050505050612c98565b600081905060008173ffffffffffffffffffffffffffffffffffffffff166370a08231306040518263ffffffff1660e01b8152600401612b349190614438565b60206040518083038186803b158015612b4c57600080fd5b505afa158015612b60573d6000803e3d6000fd5b505050506040513d601f19601f82011682018060405250810190612b8491906138e4565b9050612bb33330868573ffffffffffffffffffffffffffffffffffffffff16613440909392919063ffffffff16565b60008273ffffffffffffffffffffffffffffffffffffffff166370a08231306040518263ffffffff1660e01b8152600401612bee9190614438565b60206040518083038186803b158015612c0657600080fd5b505afa158015612c1a573d6000803e3d6000fd5b505050506040513d601f19601f82011682018060405250810190612c3e91906138e4565b905080612c54868461270390919063ffffffff16565b14612c94576040517f08c379a0000000000000000000000000000000000000000000000000000000008152600401612c8b90614976565b60405180910390fd5b5050505b5050565b600082821115612ce1576040517f08c379a0000000000000000000000000000000000000000000000000000000008152600401612cd8906146d6565b60405180910390fd5b818303905092915050565b60008060008073ffffffffffffffffffffffffffffffffffffffff166004600086815260200190815260200160002060090160009054906101000a900473ffffffffffffffffffffffffffffffffffffffff1673ffffffffffffffffffffffffffffffffffffffff1614612d96576004600085815260200190815260200160002060090160009054906101000a900473ffffffffffffffffffffffffffffffffffffffff16612dba565b600360009054906101000a900473ffffffffffffffffffffffffffffffffffffffff165b9050612dc4613737565b6040518060a00160405280600460008881526020019081526020016000206002015481526020018373ffffffffffffffffffffffffffffffffffffffff1681526020013073ffffffffffffffffffffffffffffffffffffffff1681526020016004600088815260200190815260200160002060070160009054906101000a900473ffffffffffffffffffffffffffffffffffffffff1673ffffffffffffffffffffffffffffffffffffffff1681526020016040518060200160405280600081525081525090508173ffffffffffffffffffffffffffffffffffffffff1663095ea7b3600260019054906101000a900473ffffffffffffffffffffffffffffffffffffffff1673ffffffffffffffffffffffffffffffffffffffff1663a1794bcd6040518163ffffffff1660e01b8152600401602060405180830381600087803b158015612f1057600080fd5b505af1158015612f24573d6000803e3d6000fd5b505050506040513d601f19601f82011682018060405250810190612f489190613869565b83600001516040518363ffffffff1660e01b8152600401612f6a9291906145d5565b602060405180830381600087803b158015612f8457600080fd5b505af1158015612f98573d6000803e3d6000fd5b505050506040513d601f19601f82011682018060405250810190612fbc9190613892565b50600260019054906101000a900473ffffffffffffffffffffffffffffffffffffffff1673ffffffffffffffffffffffffffffffffffffffff16635bf624226004600088815260200190815260200160002060000154836040518363ffffffff1660e01b8152600401613030929190614a6b565b600060405180830381600087803b15801561304a57600080fd5b505af115801561305e573d6000803e3d6000fd5b5050505060008273ffffffffffffffffffffffffffffffffffffffff166370a08231306040518263ffffffff1660e01b815260040161309d9190614438565b60206040518083038186803b1580156130b557600080fd5b505afa1580156130c9573d6000803e3d6000fd5b505050506040513d601f19601f820116820180604052508101906130ed91906138e4565b9050600260019054906101000a900473ffffffffffffffffffffffffffffffffffffffff1673ffffffffffffffffffffffffffffffffffffffff1663ba3393996004600089815260200190815260200160002060000154846040518363ffffffff1660e01b8152600401613162929190614a6b565b600060405180830381600087803b15801561317c57600080fd5b505af192505050801561318d575060015b61324657600260019054906101000a900473ffffffffffffffffffffffffffffffffffffffff1673ffffffffffffffffffffffffffffffffffffffff1663b320f45960046000898152602001908152602001600020600001546040518263ffffffff1660e01b81526004016132029190614996565b600060405180830381600087803b15801561321c57600080fd5b505af1158015613230573d6000803e3d6000fd5b50505050600080809050945094505050506132f1565b60008373ffffffffffffffffffffffffffffffffffffffff166370a08231306040518263ffffffff1660e01b81526004016132819190614438565b60206040518083038186803b15801561329957600080fd5b505afa1580156132ad573d6000803e3d6000fd5b505050506040513d601f19601f820116820180604052508101906132d191906138e4565b905060016132e88383612c9c90919063ffffffff16565b95509550505050505b915091565b6000808373ffffffffffffffffffffffffffffffffffffffff1683600067ffffffffffffffff8111801561332957600080fd5b506040519080825280601f01601f19166020018201604052801561335c5781602001600182028036833780820191505090505b5060405161336a9190614406565b60006040518083038185875af1925050503d80600081146133a7576040519150601f19603f3d011682016040523d82523d6000602084013e6133ac565b606091505b505090508091505092915050565b61343b8363a9059cbb60e01b84846040516024016133d99291906145d5565b604051602081830303815290604052907bffffffffffffffffffffffffffffffffffffffffffffffffffffffff19166020820180517bffffffffffffffffffffffffffffffffffffffffffffffffffffffff83818316178352505050506134c9565b505050565b6134c3846323b872dd60e01b8585856040516024016134619392919061459e565b604051602081830303815290604052907bffffffffffffffffffffffffffffffffffffffffffffffffffffffff19166020820180517bffffffffffffffffffffffffffffffffffffffffffffffffffffffff83818316178352505050506134c9565b50505050565b606061352b826040518060400160405280602081526020017f5361666545524332303a206c6f772d6c6576656c2063616c6c206661696c65648152508573ffffffffffffffffffffffffffffffffffffffff166135909092919063ffffffff16565b905060008151111561358b578080602001905181019061354b9190613892565b61358a576040517f08c379a000000000000000000000000000000000000000000000000000000000815260040161358190614896565b60405180910390fd5b5b505050565b606061359f84846000856135a8565b90509392505050565b6060824710156135ed576040517f08c379a00000000000000000000000000000000000000000000000000000000081526004016135e4906146f6565b60405180910390fd5b6135f6856136bd565b613635576040517f08c379a000000000000000000000000000000000000000000000000000000000815260040161362c90614876565b60405180910390fd5b600060608673ffffffffffffffffffffffffffffffffffffffff16858760405161365f9190614406565b60006040518083038185875af1925050503d806000811461369c576040519150601f19603f3d011682016040523d82523d6000602084013e6136a1565b606091505b50915091506136b18282866136d0565b92505050949350505050565b600080823b905060008111915050919050565b606083156136e057829050613730565b6000835111156136f35782518084602001fd5b816040517f08c379a00000000000000000000000000000000000000000000000000000000081526004016137279190614634565b60405180910390fd5b9392505050565b6040518060a0016040528060008152602001600073ffffffffffffffffffffffffffffffffffffffff168152602001600073ffffffffffffffffffffffffffffffffffffffff168152602001600073ffffffffffffffffffffffffffffffffffffffff1681526020016137a86137ae565b81525090565b6040518060200160405280600081525090565b6000813590506137d081614c78565b92915050565b6000815190506137e581614c78565b92915050565b6000813590506137fa81614c8f565b92915050565b60008135905061380f81614ca6565b92915050565b60008151905061382481614ca6565b92915050565b60008135905061383981614cbd565b92915050565b60008151905061384e81614cbd565b92915050565b60008135905061386381614cd4565b92915050565b60006020828403121561387b57600080fd5b6000613889848285016137d6565b91505092915050565b6000602082840312156138a457600080fd5b60006138b284828501613815565b91505092915050565b6000602082840312156138cd57600080fd5b60006138db8482850161382a565b91505092915050565b6000602082840312156138f657600080fd5b60006139048482850161383f565b91505092915050565b600080600080600080600060e0888a03121561392857600080fd5b60006139368a828b0161382a565b97505060206139478a828b016137c1565b96505060406139588a828b0161382a565b95505060606139698a828b0161382a565b945050608061397a8a828b016137eb565b93505060a061398b8a828b01613854565b92505060c061399c8a828b016137c1565b91505092959891949750929550565b600080604083850312156139be57600080fd5b60006139cc8582860161382a565b92505060206139dd85828601613800565b9150509250929050565b600080604083850312156139fa57600080fd5b6000613a088582860161382a565b9250506020613a198582860161382a565b9150509250929050565b613a2c81614bfe565b82525050565b613a3b81614b7d565b82525050565b613a4a81614b6b565b82525050565b613a5981614b6b565b82525050565b613a6881614b8f565b82525050565b613a7781614b9b565b82525050565b6000613a8882614b39565b613a928185614b4f565b9350613aa2818560208601614c34565b80840191505092915050565b6000613ab982614b44565b613ac38185614b5a565b9350613ad3818560208601614c34565b613adc81614c67565b840191505092915050565b6000613af4601f83614b5a565b91507f42696420696e76616c696420666f722073686172652073706c697474696e67006000830152602082019050919050565b6000613b34602783614b5a565b91507f43616e27742063616e63656c20616e2061756374696f6e206f6e63652069742760008301527f7320626567756e000000000000000000000000000000000000000000000000006020830152604082019050919050565b6000613b9a601783614b5a565b91507f4d7573742062652061756374696f6e2063757261746f720000000000000000006000830152602082019050919050565b6000613bda601b83614b5a565b91507f536166654d6174683a206164646974696f6e206f766572666c6f7700000000006000830152602082019050919050565b6000613c1a601e83614b5a565b91507f536166654d6174683a207375627472616374696f6e206f766572666c6f7700006000830152602082019050919050565b6000613c5a602683614b5a565b91507f416464726573733a20696e73756666696369656e742062616c616e636520666f60008301527f722063616c6c00000000000000000000000000000000000000000000000000006020830152604082019050919050565b6000613cc0601483614b5a565b91507f41756374696f6e206861736e277420626567756e0000000000000000000000006000830152602082019050919050565b6000613d00601a83614b5a565b91507f536166654d6174683a206469766973696f6e206279207a65726f0000000000006000830152602082019050919050565b6000613d40603083614b5a565b91507f43616e206f6e6c792062652063616c6c65642062792061756374696f6e20637260008301527f6561746f72206f722063757261746f72000000000000000000000000000000006020830152604082019050919050565b6000613da6601f83614b5a565b91507f4d7573742073656e64206174206c6561737420726573657276655072696365006000830152602082019050919050565b6000613de6602383614b5a565b91507f41756374696f6e206d75737420626520617070726f766564206279206375726160008301527f746f7200000000000000000000000000000000000000000000000000000000006020830152604082019050919050565b6000613e4c601b83614b5a565b91507f41756374696f6e2068617320616c7265616479207374617274656400000000006000830152602082019050919050565b6000613e8c604083614b5a565b91507f4d7573742073656e64206d6f7265207468616e206c617374206269642062792060008301527f6d696e426964496e6372656d656e7450657263656e7461676520616d6f756e746020830152604082019050919050565b6000613ef2602183614b5a565b91507f536166654d6174683a206d756c7469706c69636174696f6e206f766572666c6f60008301527f77000000000000000000000000000000000000000000000000000000000000006020830152604082019050919050565b6000613f58601583614b5a565b91507f41756374696f6e20646f65736e277420657869737400000000000000000000006000830152602082019050919050565b6000613f98603283614b5a565b91507f53656e74204554482056616c756520646f6573206e6f74206d6174636820737060008301527f656369666965642062696420616d6f756e7400000000000000000000000000006020830152604082019050919050565b6000613ffe602683614b5a565b91507f4d7573742062652061756374696f6e2063757261746f72206f7220746f6b656e60008301527f206f776e657200000000000000000000000000000000000000000000000000006020830152604082019050919050565b6000614064601d83614b5a565b91507f416464726573733a2063616c6c20746f206e6f6e2d636f6e74726163740000006000830152602082019050919050565b60006140a4602a83614b5a565b91507f5361666545524332303a204552433230206f7065726174696f6e20646964206e60008301527f6f742073756363656564000000000000000000000000000000000000000000006020830152604082019050919050565b600061410a601883614b5a565b91507f41756374696f6e206861736e277420636f6d706c6574656400000000000000006000830152602082019050919050565b600061414a602a83614b5a565b91507f63757261746f7246656550657263656e74616765206d757374206265206c657360008301527f73207468616e20313030000000000000000000000000000000000000000000006020830152604082019050919050565b60006141b0602d83614b5a565b91507f43616c6c6572206d75737420626520617070726f766564206f72206f776e657260008301527f20666f7220746f6b656e206964000000000000000000000000000000000000006020830152604082019050919050565b6000614216601f83614b5a565b91507f5265656e7472616e637947756172643a207265656e7472616e742063616c6c006000830152602082019050919050565b6000614256600f83614b5a565b91507f41756374696f6e206578706972656400000000000000000000000000000000006000830152602082019050919050565b6000614296602f83614b5a565b91507f746f6b656e436f6e747261637420646f6573206e6f7420737570706f7274204560008301527f524337323120696e7465726661636500000000000000000000000000000000006020830152604082019050919050565b60006142fc603483614b5a565b91507f546f6b656e207472616e736665722063616c6c20646964206e6f74207472616e60008301527f7366657220657870656374656420616d6f756e740000000000000000000000006020830152604082019050919050565b60a08201600082015161436b60008501826143d9565b50602082015161437e6020850182613a41565b5060408201516143916040850182613a41565b5060608201516143a46060850182613a41565b5060808201516143b760808501826143bd565b50505050565b6020820160008201516143d360008501826143d9565b50505050565b6143e281614be7565b82525050565b6143f181614be7565b82525050565b61440081614bf1565b82525050565b60006144128284613a7d565b915081905092915050565b60006020820190506144326000830184613a50565b92915050565b600060208201905061444d6000830184613a23565b92915050565b60006060820190506144686000830186613a23565b6144756020830185613a23565b61448260408301846143e8565b949350505050565b600060608201905061449f6000830186613a23565b6144ac6020830185613a50565b6144b960408301846143e8565b949350505050565b60006080820190506144d66000830187613a23565b6144e360208301866143e8565b6144f06040830185613a5f565b6144fd6060830184613a5f565b95945050505050565b600060c08201905061451b6000830189613a50565b6145286020830188613a23565b6145356040830187613a23565b61454260608301866143e8565b61454f60808301856143e8565b61455c60a0830184613a50565b979650505050505050565b600060608201905061457c6000830186613a50565b6145896020830185613a23565b61459660408301846143e8565b949350505050565b60006060820190506145b36000830186613a50565b6145c06020830185613a50565b6145cd60408301846143e8565b949350505050565b60006040820190506145ea6000830185613a50565b6145f760208301846143e8565b9392505050565b60006020820190506146136000830184613a5f565b92915050565b600060208201905061462e6000830184613a6e565b92915050565b6000602082019050818103600083015261464e8184613aae565b905092915050565b6000602082019050818103600083015261466f81613ae7565b9050919050565b6000602082019050818103600083015261468f81613b27565b9050919050565b600060208201905081810360008301526146af81613b8d565b9050919050565b600060208201905081810360008301526146cf81613bcd565b9050919050565b600060208201905081810360008301526146ef81613c0d565b9050919050565b6000602082019050818103600083015261470f81613c4d565b9050919050565b6000602082019050818103600083015261472f81613cb3565b9050919050565b6000602082019050818103600083015261474f81613cf3565b9050919050565b6000602082019050818103600083015261476f81613d33565b9050919050565b6000602082019050818103600083015261478f81613d99565b9050919050565b600060208201905081810360008301526147af81613dd9565b9050919050565b600060208201905081810360008301526147cf81613e3f565b9050919050565b600060208201905081810360008301526147ef81613e7f565b9050919050565b6000602082019050818103600083015261480f81613ee5565b9050919050565b6000602082019050818103600083015261482f81613f4b565b9050919050565b6000602082019050818103600083015261484f81613f8b565b9050919050565b6000602082019050818103600083015261486f81613ff1565b9050919050565b6000602082019050818103600083015261488f81614057565b9050919050565b600060208201905081810360008301526148af81614097565b9050919050565b600060208201905081810360008301526148cf816140fd565b9050919050565b600060208201905081810360008301526148ef8161413d565b9050919050565b6000602082019050818103600083015261490f816141a3565b9050919050565b6000602082019050818103600083015261492f81614209565b9050919050565b6000602082019050818103600083015261494f81614249565b9050919050565b6000602082019050818103600083015261496f81614289565b9050919050565b6000602082019050818103600083015261498f816142ef565b9050919050565b60006020820190506149ab60008301846143e8565b92915050565b6000610180820190506149c7600083018f6143e8565b6149d4602083018e613a50565b6149e1604083018d613a5f565b6149ee606083018c6143e8565b6149fb608083018b6143e8565b614a0860a083018a6143e8565b614a1560c08301896143e8565b614a2260e08301886143f7565b614a30610100830187613a50565b614a3e610120830186613a32565b614a4c610140830185613a32565b614a5a610160830184613a50565b9d9c50505050505050505050505050565b600060c082019050614a8060008301856143e8565b614a8d6020830184614355565b9392505050565b6000604082019050614aa960008301856143e8565b614ab660208301846143e8565b9392505050565b600060c082019050614ad260008301896143e8565b614adf60208301886143e8565b614aec6040830187613a50565b614af96060830186613a23565b614b0660808301856143f7565b614b1360a0830184613a50565b979650505050505050565b6000602082019050614b3360008301846143f7565b92915050565b600081519050919050565b600081519050919050565b600081905092915050565b600082825260208201905092915050565b6000614b7682614bc7565b9050919050565b6000614b8882614bc7565b9050919050565b60008115159050919050565b60007fffffffff0000000000000000000000000000000000000000000000000000000082169050919050565b600073ffffffffffffffffffffffffffffffffffffffff82169050919050565b6000819050919050565b600060ff82169050919050565b6000614c0982614c10565b9050919050565b6000614c1b82614c22565b9050919050565b6000614c2d82614bc7565b9050919050565b60005b83811015614c52578082015181840152602081019050614c37565b83811115614c61576000848401525b50505050565b6000601f19601f8301169050919050565b614c8181614b6b565b8114614c8c57600080fd5b50565b614c9881614b7d565b8114614ca357600080fd5b50565b614caf81614b8f565b8114614cba57600080fd5b50565b614cc681614be7565b8114614cd157600080fd5b50565b614cdd81614bf1565b8114614ce857600080fd5b5056fea2646970667358221220bca25694837ee1942f422b0cd870bddd14dee095a9e4156d4a638313488d386064736f6c63430006080033",
  "linkReferences": {},
  "deployedLinkReferences": {}
}